S0130000417263616465537469636B2E73726563D3
S11300000C9434000C9451000C9451000C94510045
S11300100C9451000C9451000C9451000C94510018
S11300200C9451000C9451000C9451000C94510008
S11300300C9451000C9451000C9451000C945100F8
S11300400C9451000C9451000C9434010C94510004
S11300500C9451000C9451000C9451000C945100D8
S11300600C9451000C94510011241FBECFEFD8E022
S1130070DEBFCDBF21E0A6E0B1E001C01D92A631F4
S1130080B207E1F711E0A0E0B1E0EEE5FEE002C066
S113009005900D92A630B107D9F70E943E030C9447
S11300A02D070C9400008093C4009093C500E1ECEC
S11300B0F0E0808188698083E0ECF0E080818260F8
S11300C08083089584B18C6284B987B1806287B9D2
S11300D08CB583658CBD089580E090E00E94810614
S11300E08230910540F060E070E080E090E00E9492
S11300F0870680E090E0089595B19B7F95B91EBC7A
S11301000DB407FEFDCF8EBD0DB407FEFDCF85B146
S1130110846085B983EF91E00197F1F700C0000096
S113012085B18B7F85B98FEF8EBD0DB407FEFDCFF2
S11301301EBC0DB407FEFDCF85B1846085B983EF85
S113014091E00197F1F700C00000089595B19B7FFD
S113015095B997E09EBD0DB407FEFDCF8EBD0DB4DD
S113016007FEFDCF85B1846085B983EF91E00197E7
S1130170F1F700C0000085B18B7F85B98FEF8EBD8C
S11301800DB407FEFDCF1EBC0DB407FEFDCF85B137
S1130190846085B983EF91E00197F1F700C0000016
S11301A0089598B19F7D98B91EBC0DB407FEFDCF8C
S11301B08EBD0DB407FEFDCF88B1806288B983EF90
S11301C091E00197F1F700C00000089595B19B7F7D
S11301D095B992E09EBD0DB407FEFDCF8EBD0DB462
S11301E007FEFDCF85B1846085B983EF91E0019767
S11301F0F1F700C0000085B18B7F85B983E08EBD27
S11302000DB407FEFDCF6EBD0DB407FEFDCF85B165
S1130210846085B983EF91E00197F1F700C0000095
S113022085B18B7F85B98FEF8EBD0DB407FEFDCFF1
S11302301EBC0DB407FEFDCF85B1846085B983EF84
S113024091E00197F1F700C0000008959091C0007B
S113025095FFFCCF8093C60008958091C000882349
S1130260E4F78091C60008951F920F920FB60F9283
S113027011240F931F932F933F934F935F936F9387
S11302807F938F939F93AF93BF93EF93FF93CF93FA
S1130290DF93CDB7DEB72D97DEBFCDBF8091C6000B
S11302A08A3661F461E070E080E090E00E948706A5
S11302B081E08093060180930F01A5C0843661F428
S11302C060E070E080E090E00E94870610920601F2
S11302D081E080930F0197C0863549F50E942D0176
S11302E08A8789EF90E00197F1F700C000000E942F
S11302F02D018B87E9EFF0E03197F1F700C00000A2
S11303000E942D018C8789EF90E00197F1F700C0DE
S113031000001D864AE050E060E070E0CE010A96DD
S11303200E94580570930A01609309016CC08332DE
S113033009F069C00E942D018983E9EFF0E031974B
S1130340F1F700C000000E942D018A8389EF90E03C
S11303500197F1F700C000001B820E942D018C83DD
S1130360E9EFF0E03197F1F700C000000E942D01A1
S11303708D8389EF90E00197F1F700C000001E82A1
S11303800E942D018F83E9EFF0E03197F1F700C06F
S113039000000E942D01888789EF90E00197F1F712
S11303A000C00000198600910D0110910E0140E17A
S11303B050E060E070E0CE0101960E94580560951F
S11303C0F8017183608300910B0110910C0140E1ED
S11303D050E060E070E0CE0104960E9458056095FC
S11303E0F80171836083009107011091080140E1D5
S11303F050E060E070E0CE0107960E9458056095D9
S1130400F801718360832D960FB6F894DEBF0FBE9A
S1130410CDBFDF91CF91FF91EF91BF91AF919F91AC
S11304208F917F916F915F914F913F912F911F9188
S11304300F910F900FBE0F901F901895CF93C82F58
S113044033990AC089EF90E00197F1F700C00000EA
S1130450339903C0C16001C0CE7F32990AC089EFCD
S113046090E00197F1F700C00000329903C0C06426
S113047001C0CF7B31990AC089EF90E00197F1F771
S113048000C00000319903C0C26001C0CD7F309923
S11304900AC089EF90E00197F1F700C0000030999D
S11304A003C0C06201C0CF7D4D990AC089EF90E0BE
S11304B00197F1F700C000004D9903C0C46001C06A
S11304C0CB7F4F990AC089EF90E00197F1F700C004
S11304D000004F9903C0C06101C0CF7E18990AC0C3
S11304E089EF90E00197F1F700C00000189903C06C
S11304F0C86001C0C77F8C2F0E947C008C2FCF91D5
S11305000895CF93C82F4A990AC089EF90E00197C4
S1130510F1F700C000004A9903C0C26001C0CD7F5A
S11305201F990AC089EF90E00197F1F700C000001D
S11305301F9903C0C46001C0CB7F4C990AC089EFE6
S113054090E00197F1F700C000004C9903C0C1602E
S113055001C0CE7F1E990AC089EF90E00197F1F7A0
S113056000C000001E9903C0C86001C0C77F8C2F63
S11305700E94A60084E60E9426018C2FCF91089544
S1130580CF93DF93EC014C990BC089EF90E0019776
S1130590F1F700C000004C9911C08FE789830EC0A9
S11305A04A990BC089EF90E00197F1F700C0000071
S11305B04A9904C081E8898301C019821F990BC03C
S11305C089EF90E00197F1F700C000001F9911C076
S11305D08FE788830EC01E990BC089EF90E00197C6
S11305E0F1F700C000001E9904C081E8888301C0AF
S11305F01882698188810E94E6008AE60E942601A9
S1130600CE01DF91CF91089584B1816C84B987B113
S11306108F6087B98AB1846B8AB981EC85B98FE020
S113062088B984EB8BB98AB180648AB98FEF87BDAE
S113063088BD93E894BD21E025BD94B1926094B93E
S11306404FEF50E050938900409388005093870007
S11306504093860092E89093800099E19093810002
S11306609AB198609AB98093B4008093B30083E2FE
S11306708093B0002093B100789408958CE090E0CA
S11306800E9453000E9462000E9404030E946C00B6
S11306908093060110920F0163E070E082E090E025
S11306A00E941B047C0162E070E082E090E00E9402
S11306B01B0490930E0180930D0162E070E082E0D0
S11306C090E00E941B0490930C0180930B0162E064
S11306D070E082E090E00E941B04909308018093F4
S11306E00701F70110821182C0910D01D0910E0112
S11306F084E090E00E94810699838883C0910B0175
S1130700D0910C0188E090E00E948106998388834F
S1130710C0910701D09108018CE090E00E9481060D
S11307209983888380E190E00E94810690930A0176
S11307308093090100E010E0C12CD12C8D2D0E9482
S11307401E02D82E80910601811104C08C2D0E94B6
S11307508102C82E80910F01813051F480E00E9403
S1130760A60060E080E00E94E60010920F0108C03D
S113077080910601813021F4C7010E94C0027C01EE
S113078087B590E0E0910D01F0910E012081318157
S11307908217930759F027BDE0910D01F0910E01E6
S11307A06081718184E090E00E9487062091880036
S11307B030918900E0910701F091080180819181D5
S11307C02817390771F09093890080938800E0918D
S11307D00701F0910801608171818CE090E00E9432
S11307E087068091B40090E0E0910B01F0910C0138
S11307F0208131818217930761F02093B400E09146
S11308000B01F0910C016081718188E090E00E94FD
S11308108706C0910901D0910A010C171D0709F43C
S11308208DCF8C2F0E94D100BE0180E190E00E9408
S113083087068E0183CF0F931F93CF93DF93869FF9
S11308408001879F100D969F100D1124C8010E94EE
S11308503704EC01009729F0A80160E070E00E94E1
S11308607706CE01DF91CF911F910F9108950F93D9
S11308701F93CF93DF938230910510F482E090E0D0
S1130880E0911201F091130120E030E0A0E0B0E02B
S1130890309719F14081518102811381481759071A
S11308A0C8F08417950769F4109731F012960C93E9
S11308B0129713961C9327C00093120110931301EF
S11308C022C02115310519F04217530718F49A0173
S11308D0BD01EF01DF01F801DBCF21153105F9F08E
S11308E0281B390B2430310580F48A819B816115E2
S11308F0710521F0FB019383828304C0909313015B
S113090080931201FE01329644C0FE01E20FF31FF0
S11309108193919322503109398328833AC02091DD
S1130920100130911101232B41F4209102013091E7
S113093003013093110120931001209100013091A3
S113094001012115310541F42DB73EB74091040151
S113095050910501241B350BE0911001F091110118
S1130960E217F307A0F42E1B3F0B2817390778F082
S1130970AC014E5F5F4F2417350748F04E0F5F1FE1
S113098050931101409310018193919302C0E0E0D0
S1130990F0E0CF01DF91CF911F910F910895CF9394
S11309A0DF93009709F481C0FC013297138212820D
S11309B0A0911201B0911301109781F4208131812B
S11309C0820F931F209110013091110128173907CC
S11309D051F5F0931101E093100167C0ED0120E09F
S11309E030E0CE17DF0740F44A815B819E01411558
S11309F05105F1F0EA01F5CFD383C28340815181DF
S1130A00840F951FC817D90759F488819981840FD9
S1130A10951F0296918380838A819B81938382832D
S1130A202115310529F4F0931301E09312013DC01F
S1130A30E901FB83EA8349915991C40FD51FEC174F
S1130A40FD0761F480819181840F951F0296E9016D
S1130A5099838883828193819B838A83E0E0F0E099
S1130A6012968D919C911397009719F0FD01DC016A
S1130A70F7CF8D919C9111979D012E5F3F4F820F6F
S1130A80931F20911001309111012817390769F43F
S1130A90309729F4109213011092120102C01382AC
S1130AA01282B0931101A0931001DF91CF910895A8
S1130AB0A0E0B0E0EEE5F5E00C94E8065C016B0123
S1130AC07A016115710519F0FB0191838083E114AA
S1130AD0F10429F0C7010297839708F0E5C0E50106
S1130AE02196F5011081812F90E00E946E06892BDA
S1130AF011F05E01F4CF1D3229F42196F501118124
S1130B0001E007C01B3221F4E5012296F5011181B1
S1130B1000E0E114F10409F1F0E1EF16F10429F425
S1130B203FC010E3E114F10421F128E0E216F104DE
S1130B3001F154F4E2E0EE16F10421F5812C912C3C
S1130B40A12CB0E4BB2E3EC0FAE0EF16F10439F05C
S1130B5020E1E216F104B1F430C0103319F1FAE0E7
S1130B60EF2EF12CACEC8A2E982CA82CACE0BA2EEB
S1130B7029C078E0E72EF12C812C912CA12CE0E106
S1130B80BE2E20C060E070E080E090E897010F2C5A
S1130B90000C440B550B0E94BA0649015A0112C0BD
S1130BA0103359F488818F7D883509F0BACF1981C3
S1130BB02296026080E1E82EF12C812C912CA12C4C
S1130BC068E0B62E40E060E070E0CB0127010F2C16
S1130BD0000C66087708FE0150ED352E310E29E031
S1130BE0231570F42FEB210F2A3118F439EC332E2E
S1130BF006C02FE9210F2A3118F529EA322E310EC9
S1130C00232D30E02E153F05DCF447FD16C0861673
S1130C109706A806B90670F0A30192010E94AA06DD
S1130C20630D711D811D911D61307105810520E8E1
S1130C30920710F04FEF01C041E021961081CBCF15
S1130C40202F2170C114D10471F0442329F021977D
S1130C50F601D183C08307C001FF19C02297F601B2
S1130C60D183C08314C047FF12C0222329F060E05F
S1130C7070E080E090E804C06FEF7FEF8FEF9FE7B4
S1130C8022E230E0309315012093140109C022239D
S1130C9081F090958095709561957F4F8F4F9F4F10
S1130CA0462F372F282F12C040E030E020E090E09C
S1130CB00DC097FFF5CF82E290E0909315018093E9
S1130CC014016FEF7FEF8FEF9FE7EACF642F732F4D
S1130CD0822FCDB7DEB7E1E10C94040791110C9497
S1130CE07E06803219F089508550C8F70895DC01DA
S1130CF001C06D9341505040E0F70895992788272B
S1130D000895A8E1B0E042E050E00C948E060E9401
S1130D109C06272F0C949D06DC01CB01FC01F9995C
S1130D20FECF06C0F2BDE1BDF89A319600B40D9233
S1130D3041505040B8F70895262FF999FECF1FBAB5
S1130D4092BD81BD20BD0FB6F894FA9AF99A0FBEF0
S1130D5001960895DB018F939F930E94DC06BF9157
S1130D60AF91A29F800D911DA39F900DB29F900DF6
S1130D7011240895A1E21A2EAA1BBB1BFD010DC06C
S1130D80AA1FBB1FEE1FFF1FA217B307E407F50737
S1130D9020F0A21BB30BE40BF50B661F771F881F13
S1130DA0991F1A9469F760957095809590959B01A9
S1130DB0AC01BD01CF0108950E941E07A59F900DAF
S1130DC0B49F900DA49F800D911D112408952F921E
S1130DD03F924F925F926F927F928F929F92AF92C7
S1130DE0BF92CF92DF92EF92FF920F931F93CF9314
S1130DF0DF93CDB7DEB7CA1BDB0B0FB6F894DEBFAB
S1130E000FBECDBF09942A88398848885F846E84D0
S1130E107D848C849B84AA84B984C884DF80EE801A
S1130E20FD800C811B81AA81B981CE0FD11D0FB623
S1130E30F894DEBF0FBECDBFED010895A29FB001AF
S1130E40B39FC001A39F700D811D1124911DB29FFA
S1110E50700D811D1124911D0895F894FFCF9B
S1090E5E00001601200053
S9030000FC
